:020000040000FA
:030000000200D328
:030013000227477A
:03002B000227B6F3
:030063000227343D
:03006B000227B9B0
:1000830002216A00000080FB1200E2B900030200B3
:10009300CDE4900400787A79018002F0A3D8FCD9EA
:1000A300FA900479AA82AB839000E5787D79028087
:1000B30015E493A3AC82AD838A828B83F0A3AA82D7
:1000C300AB838C828D83D8E9D9E71227221200866D
:1000D30075D0007581BF75100075110402008B790E
:1000E30001220000CB42000000006A006F7574001B
:1000F30000001003030200000000040104010105D5
:1001030009022575D50F02030405060708090A0B22
:100113000C0D0E0FC8320141540D0A004F4B0D0A4E
:100123000041542B4E45543D310D0A0041542B439D
:1001330048414E4E454C49440D0A004368616E6E7A
:10014300656C5F25640D0A0041542B4E45543D30C8
:100153000D0A0041542B534554414C4C49443D3105
:100163000D0A0041542B4144444F4E4549443D310F
:100173002C0041542B5345544944454E443D310DC5
:100183000A0041542B5345544749443D312C004107
:10019300542B57414B4554494D453D302C00415458
:1001A3002B4E4F44453D003E045702E8030000FF39
:1001B30000000000010000FFFFFFFFFFFFFFFFFF44
:1001C300FFFF20736871696E6C752E636F6D0D0A86
:1001D300000000001A2700000073140000001E270F
:1001E300000000BC1400000058190000006C190046
:1001F300000062170005051118000101BF2300006C
:1002030000C926000000271D000000C024000000D4
:10021300A1253031323334353637383941424344FE
:10022300454600286E756C6C20706F696E7465723C
:1002330029003F3F3F000000807F0000803FF9021C
:100243001550B743BA510000204100E7DB2E0000F0
:10025300A04010000000080000000A000000C008D1
:10026300C3E096F50808A3E096420808A3E0964287
:100273000808A3E0964208A2D265D033E5087001CE
:10028300D3D00822C3E7960809E7960809E796083A
:1002930009E79622C008C3E096F50808A3E0964252
:1002A3000808A3E096420808A3E09645087001D326
:1002B300D00822080808E630E711120B721202CEAA
:1002C300080808C64480C618181822181818E979AF
:1002D3009EC608CAC608CBC608CCC6C3702079968A
:1002E300CACBCC7019798ECBCC70137986CC700EB7
:1002F300F9802ACA33CACB33CBCC33CC331930E79A
:10030300F2CCCBCA3350147004EA30E00DE4CA3A9D
:10031300CACB3BCBCC3CCC500209C3E913C6CC18A7
:100323002313C6CB18C6CA18C6F92212036E20F0CF
:100333001430E72B74FFFCFBFA747F8022E4FCFB90
:10034300FA7480801AB48008BC00F2BB00EF800FFF
:1003530050EBF9E4C39AFAE49BFBE49CFCE499C6F2
:10036300CC18C6CB18C6CA18C6F922E4C9C608CA2F
:10037300C608CBC6D3330308CCC63392F0C3947FED
:10038300402E94184019C9B90704CACBCC22502572
:10039300C309CA33CACB33CBCC33CC33D9F422F41D
:1003A300600DC9CCC313CB13CBCA13CAD9F6CC2265
:1003B300E4FCFBFA2214FCFBFA22E6C333184618CA
:1003C30046184622E7C33319471947194722181815
:1003D30018E6084608700AE608C3337005E633F4E6
:1003E300220822191919E7094709700AE709C333D3
:1003F3007005E733F4220922E6084608C3134608CA
:10040300336002E633F422E7094709C3134709338C
:100413006002E733F4221203FB602512040A602012
:100423001203BD70030203C7080808E766701018BB
:1004330019E766700A1819E76670041819E7662247
:10044300F4221203FB601C12040A60171203BD702E
:10045300071203C77001D322C0D01203C77006D09E
:10046300D0B322C32233D0D0501430E0F6C3E79682
:100473000809E7960809E7960809E796B32220E0FA
:10048300D5E6970809E6970809E6970809E697B3BA
:10049300221203FB601B12040A60161203BD7007CD
:1004A3001203C7600CB322C0D01203C77005D0D0AB
:1004B30022C32233D0D0501330E0EBC3E7960809B0
:1004C300E7960809E7960809E7962220E0E4E6970D
:1004D3000809E6970809E6970809E6972200120338
:1004E300FB604F12040A6012E7548066F61203D1D0
:1004F30070111203C7703B090909F4F618F618F6D0
:1005030018F6221203E670151203BD08080860EA04
:10051300E6447FF618768018E4F618F6221203BD37
:1005230060161203C77012E4F608F608F608E654DC
:1005330080F609090918181822EAC0E0EBC0E0ECBC
:10054300C0E0EDC0E0E687F0A4FBACF008E687F07E
:10055300A42CFCE435F0FA1809E687F0A42C4B60D0
:10056300027401CA35F0FCE433FB09E687F0D2F7E5
:10057300A42CCB35F0FC1908E687F0A42BCC35F07E
:10058300FBE433FD0819E687F0D2E7A42C4ACB3508
:10059300F0CD3400FC09E687F0D2E7A42DCC35F08A
:1005A300FDE433FA0918E687F0D2F7A42CCD35F031
:1005B300CA3400FC08E687F0D2E7D2F7A42ACC3588
:1005C300F07A7E20E70B0ACB33CBCD33CDCC33CCC3
:1005D30033CB3350147004ED30E00ED2F1E4CD3D53
:1005E300CDCC3CCC3B5005DA05C2F1EB547FC6338E
:1005F30008E63392F0FBE73309E733C39A502D2B18
:1006030070190C0D4C4D70151806E608C333700DA8
:1006130020F10AA2F013F6E418800B4024E4F6302C
:10062300F002768018F618F618F68024D33B14509F
:100633001074FFA2F013F6187680E418F618F6800B
:100643000FA2F013F618E63303F618ECF618EDF6DE
:10065300D0E0FDD0E0FCD0E0FBD0E0FA2212040AA7
:1006630060461203FB603DE9687008F618F618F659
:1006730018F622748067F7120694090909748067D3
:10068300F7221203FB601D12040A70051919198061
:100693001A1203D1701F1203E6C37003E6673319FE
:1006A300191940071818182208080874FFF618F6D5
:1006B30018F618F6221203E660171203C770219288
:1006C300F01203BD7019501720F014080808090927
:1006D30009E7F61819E7F61819E7F61819E7F622E5
:1006E3001203BD60E6E869701F0808E62480F60877
:1006F300E436F618547FB47F0CE654806007F6E4C2
:1007030018F618F622181822E9C6CC08C6CD08C672
:10071300CE08C6CFC0E0E8C0E0EAC0E0EBC0E00925
:10072300E9F809E7FA09E7FBE6F918E6F8C3EC98F4
:10073300ED99EE9AEBC2E7F5F0EFC2E795F0500EB4
:10074300600CEBCFFBEACEFAE9CDF9E8CCF8EAA2EC
:10075300E7D2E7FAEB33FB13F5F0EEA2E7D2E7FEBD
:10076300EF33FFC5F013A2E730E601B313C5F0C3BF
:10077300C0E0C0F07F00C39BFB605B9418600C403B
:100783001AD0E023F9D0E0F80208638AF0E9486060
:1007930003D2F0E4AFF0FAF9F8803BEB30E40D89D3
:1007A300F0EA6003D2F0E4AFF0F9CAF8EB30E30DFE
:1007B30088F0EF6002D2F0AFF0E4CAC9F8EB540757
:1007C3006014FBC3EA13FAE913F9E813F8EF1350C3
:1007D30002D2E0FFDBEDD0E0C0E030E739C3E49FB5
:1007E300FFF5F0EC98FC42F0ED99FD42F0EE9AFE35
:1007F30042F0D0E0F9D0E0F8E5F0607AE923F9EED1
:1008030020E742D8028067C3EF33FFEC33FCED33BC
:10081300FDEE33FE80EAEC28FCED39FDEE3AFED026
:10082300E023F9D0E0F84002801BC3EE13FEED1382
:10083300FDEC13FCEF135002D2E0FF08B800067F73
:100843007F74FF802EEF3350178CF020F00260107E
:100853000CBC000C0DBD00080EBE000408E860DFF0
:10086300E933E813FFEE2313FE4F4D4C8008E954A0
:1008730080FFE4FEFDFCEE33EF33F47004FCFD7EF9
:1008830080D0E0FBD0E0FAD0E0F8D0E0CFC618CEBD
:10089300C618CDC618CCC6F9221203FB700418186B
:1008A300182212040A700D74FFF61819F61819F6B7
:1008B3001819F622E7548066F61203BD700F12036F
:1008C300C770F014F608F608F608F680D11203C7CD
:1008D300700CF608F608768008E6447F80EC120375
:1008E300E9700C1203D460BFE65480F6E480BB12B7
:1008F30003D4700519191980A5E869700C763F189F
:10090300768018F618F6E8F922E6CDC0E018ECC0B8
:10091300E0E633CD33CDD313F6E719FCE7191933EA
:10092300CC33C3947F400ECD9D502408E65480F60B
:10093300E418F6800FF4043D14501408E6447FF6DF
:10094300187680E418F618F6D0E0FCD0E0FD22CC4F
:10095300D313CCFD18E4C6CBC0E018E4C6CAC0E08C
:100963000808ED08C633E613F618E433C675F0033A
:10097300C3CA97CA09CB97CB199C40047D08802E24
:10098300BD0003020A4516B6FF050606081618C37E
:10099300CA33CACB33CB33CA27CA09CB37CB193CAB
:1009A300C37D08803E187D0820E75CC633C6CA3382
:1009B300CACB33CB33DDF1D5F0EB30E77BCA97CA33
:1009C30009CB974ACB199C406F4B7025E620E02159
:1009D3008066187D08C3CA97CA09CB97CB199CD3E5
:1009E300C633C6CA33CACB33CB3350C9DDE7D5F0E0
:1009F300E1D3E4C636C608C636C608C636C608C638
:100A030036C61818188031C3CA97CA09CB97CB19B1
:100A13009CB34097C633C6CA33CACB33CB33DD341A
:100A2300D5F02EC6A2E0C640C8CA27CA09CB3719DB
:100A33004A70BECB3CB480B90808E63308E633609D
:100A43001F181818D0E0FAD0E0FBD0E0FCD0E0FD8E
:100A530022187D08CA27CA09CB37CB193CD380801B
:100A630013F618E4B67F11F618B6FF0EF618C6048F
:100A730070D20808768080CAF618F618F680C50882
:100A83000808EAC0E0EBC0E086F0E7A4FA1809869C
:100A9300F0E7A42AFA180986F0E7A42AFA180986C7
:100AA300F0E7A42AFA1986F0E7A4FBE5F02AFA197D
:100AB3000886F0E7A42BFBE5F03AFA190886F0E77D
:100AC300A42BFBE5F03AFA18180986F0E7A4C5F061
:100AD3002BFBE43AFA1908E7C5F0C6A426F6E5F0BD
:100AE3003BFBE43AFA1886F0E7A4F6E5F00826F6AD
:100AF300E43B08F6E43A08F6D0E0FBD0E0FA22E45F
:100B0300CFC0E0E4CEC0E0E4CDC0E0E4CCC0E0750B
:100B1300F020C3E633F608E633F608E633F608E6D4
:100B230033F6181818EC33FCED33FDEE33FEEF33D8
:100B3300FFC3EC9709ED9709EE9709EF9719191978
:100B4300400FFFEC97FC09ED97FD09EE97FE19198D
:100B530006D5F0BEECF709EDF709EEF709EFF71943
:100B63001919D0E0FCD0E0FDD0E0FED0E0FF221860
:100B73001818E4C396F608E496F608E496F608E433
:100B830096F6226016080808C6C313C618C613C60D
:100B930018C613C618C613C6D5E0EA22700908089A
:100BA30008226016181818C6C333C608C633C60809
:100BB300C633C608C633C6D5E0EA22E627F60809D7
:100BC300E637F60809E637F60809E637F622E64778
:100BD300F60809E647F60809E647F60809E647F680
:100BE30022E0F608A3E0F608A3E0F608A3E0F62265
:100BF300E6F008A3E6F008A3E6F008A3E6F022E097
:100C0300FAA3E0FBA3E0FCA3E0FD22EAF0A3EBF0F0
:100C1300A3ECF0A3EDF022CAC0E0E6F0A308DAFAF1
:100C2300D0E0FA22CAC0E0E0A3C582CCC582C58366
:100C3300CDC583F0A3C582CCC582C583CDC583DA78
:100C4300E6D0E0CA22C3E498F8E499F9120C89804B
:100C530026C3E49AFAE49BFBE920E7E9120C89E452
:100C630098F8E499F922C3E498F8E499F9120C8905
:100C7300E498F8E499F9C3E49AFAE49BFB22EB20A5
:100C8300E7CFE920E7E0B90010BB0008E88AF08469
:100C9300F8AAF022E4FBC8FA22EB70227B10C833D7
:100CA300C8C933C9335007C39AC3DBF280069A50CD
:100CB300012ADBEAC833F4C8C933F4C9FA2275F050
:100CC30008E4C833C8C933C933C99AC99B5004C996
:100CD3002AC93BD5F0ECFBC833F4C8E4C9FA226057
:100CE3000D08C6A2E713C618C613C6D5E0F32260E3
:100CF3000C08C6C313C618C613C6D5E0F422700485
:100D030022600D18C6C333C608C633C6D5E0F4182F
:100D130022251010AF08F510400215118008F510B8
:100D230040021511D2AF22C0D0251010AF08F51024
:100D3300500205118008F51050020511D2AFD0D032
:100D4300222510F58210AF08F51040021511800816
:100D5300F51040021511D2AF851183222510F582BB
:100D6300E43511F58322E4732510C582C0E0E51153
:100D730034FFC583C0E0E510C3958224F910AF08A2
:100D83008583118582108008858311858210D2AFF7
:100D9300CEF0A3E520F0A37808E608F0A3DEFAEF8F
:100DA300F0A3E58124FBF8E608F0A3E608F0A30826
:100DB30008E608F0A3E608F0A315811581D0E0FE4C
:100DC300D0E0F815811581E8C0E0EEC0E02285117E
:100DD30083851082E0A3FEE0A3F5207808E0A3F664
:100DE30008DFFAE0A3FFE0A3C0E0E0A3C0E0E0A3D4
:100DF300C0E0E0A3C0E010AF0885821085831180B6
:100E030008858210858311D2AFD083D08222C0D0CF
:100E13002510C582C0E0E51134FFC583C0E0E510AD
:100E2300C3958224F310AF0885831185821080084F
:100E3300858311858210D2AFC8F0A3E9F0A3EAF04D
:100E4300A3EBF0A37908E709F0A3D8FAECF0A3ED3C
:100E5300F0A3EEF0A3EFF0A3D0E0F0A3D0E0F0A373
:100E6300D0E0F0A3E520F0A3E5F0F0A32285118301
:100E7300851082E0C0E0A3E0F9A3E0FAA3E0FBA3BE
:100E83007808E0F608A3DFFAE0FCA3E0FDA3E0FEA8
:100E9300A3E0FFA3E0C0E0A3E0C0E0A3E0F5D0A39C
:100EA300E0F520A3E0A3F5F010AF08858311858258
:100EB300108008858311858210D2AFD082D083D071
:100EC300E0F8D0E032740280027401C0E0F404124E
:100ED3000D44D0E0120C1A2274028000CCC0E0ED65
:100EE300C0E0E510C39CCCAD1150011D10AF068CC2
:100EF300108D1180068C108D11D2AF120C27D0E00B
:100F0300FDD0E0FC22538F7F53F7DF53F37F53FD74
:100F13007F2274F7120D6BE9FDEAFC7901EDC394AE
:100F230008500CED6009FEE9C333F91EEE70F8E9D1
:100F330042F2EC14600814600914600A800C780013
:100F4300800A78108006782080027830900400EDC3
:100F530048F8E048F5B6E5B4A2E750FA74FF6952E1
:100F6300F2E5BAF508E5BBAA08FBC31212C85004A0
:100F73007A007B00EC14600814600D146012801872
:100F83008A088B09740880168A088B097406800EF8
:100F93008A088B09740480068A088B09740278080E
:100FA300120CE2AA08AB097F02020DD174F1120DF3
:100FB3006B74F0120D149004007480F08510828518
:100FC3001183AE82AF837A047907120F158E828F55
:100FD30083EAF0A3EBF0EE24020E0EEF3400FF746D
:100FE30010120D5FE5826E7003E5836F70D87C028B
:100FF3007908851082851183AA82AB831210BB8A7C
:101003000C8B0D7406780C120CF2F50EF50F780CA0
:101013001202D19004797808120BE4780C79081243
:1010230004E0780C12032E7406780C120CF2850C73
:1010330008850D09C3E50894A7E5099400400479E0
:1010430009806BC3E50894A5E50994004004790879
:10105300805CC3E50894A3E5099400400479078004
:101063004DC3E50894A1E509940040047906803E48
:10107300C3E508949FE509940040047905802FC3D4
:10108300E508949DE5099400400479048020C3E5B4
:1010930008949BE5099400400479038011C3E50C8F
:1010A3009499E50D9400400479028002790174104B
:1010B300120D2A7F08020DD174F1120D6B74D71231
:1010C3000D14E9851082851183F07401120D5FEC14
:1010D300F0851082851183E060417409120D5FA8C9
:1010E30082A983851082851183E0C0E07404120D08
:1010F3005FD0E0F08A828B83E0FCA3E0FD888289E5
:1011030083ECF0A3EDF01212BD24020808E93400C9
:10111300F97404120D5FE014F070D97E008510821B
:10112300851183E024FFFCE434FFFDC3EC9401ED5F
:101133001212C850030212307405120D5FECF0A3B3
:10114300EDF07409120D5FA882A9837402120D5F7A
:10115300E8F0A3E9F07407120D5FECF0A3EDF08063
:10116300107405120D5FC3E09401A3E01212C8408E
:101173007E7409120D5FAA82AB838E08ECC39508B7
:10118300F8ED9400F98A828B83A3A3C082C0838A7B
:10119300828B83E0F508A3E0F509D083D082C3E016
:1011A3009508A3E0950950397402120D5FE0FFA37F
:1011B300E0F5838F82E0F508A3E0F5098A828B834B
:1011C300A3A3E0F50CA3E0F50D8A828B83E50CF075
:1011D300A3E50DF08A828B83A3A3E508F0A3E509B9
:1011E300F01212BD24FF18E934FFF9E84970960E96
:1011F3007402120D5FE02402F8A3E03400F97402D4
:10120300120D5FE8F0A3E9F07405120D5FE024FF0F
:10121300F0A3E034FFF07407120D5FE024FFF0F851
:10122300A3E034FFF0F9E849600302116490047D00
:101233007808120BE4851082851183E024FEFAE41A
:1012430034FFFBC3EC9402ED1212C84039740B1245
:101253000D5FAC82AD83EAFEEBFF8C828D83E0F5FC
:101263000CA3E0F50DE4F50EF50F7808790C120BDD
:10127300BEEC24020C0CED3400FDEE24FF1EEF3413
:10128300FFFFEE4F70D47401120D5FE06010F50C98
:10129300E4F50DF50EF50F7808790C120A828A0C25
:1012A300EBF50D3395E0F50EF50F7808790C120B7D
:1012B30002AA08AB0974290210B3EA24020A0AEB52
:1012C3003400FBE8229400A2D265D03322C082C04E
:1012D3008375E1EE78937904900493E0FB74022B19
:1012E300F5D9EB6011FA88828983A3A882A983E0E8
:1012F300F5D91AEA70F00214A774F7120D6BE9FE20
:101303001217F78E0874992508F58274043400F5D2
:1013130083E0906190F00213C4C082C083780179A6
:101323000480227A00E0601788828983A3A882A9B7
:1013330083E5D9F00A900401E0FBEAC39B40E990FE
:1013430005777401F0E5E9A2E25013906193E0A2FE
:10135300E6500EE0A2E7400975E1EC75E1EC0214FA
:10136300A753E9FBE5D9547F900401F0C3940940E6
:10137300B2E0FAE5D91AEA60C680F874F7120D6B89
:101383007508347509007808120EC87C307D007A20
:10139300097B0412172E120D2A121ED6C2AF900417
:1013A3009CE090048AF090048BF0F91221127902E8
:1013B3001212FC7A1C7B131221441217E6D2AF805F
:1013C300031217E67F02020DD174F8120D6BE9FECA
:1013D300EAFFEE900493F0EF900496F0EBA312145F
:1013E30064E591A2E150FA7591FD7F01020DD1747C
:1013F300F7120D6B9004937405F0750803750900DB
:101403007808120EC87C947D047A877B0412286BBB
:101413007402120D2A7508047808120EC87C5A7DCE
:10142300047A947B0412286B7402120D2A90049898
:1014330074FF121464E591A2E150FA7591FD7508E9
:10144300037808120EC87C877D047A947B041228E3
:101453006B7402120D2A120FAFE9900498F0021375
:10146300C7F0121469221212D012215C75E1E9222D
:10147300C082C0831214AC121464E591A2E150FA45
:101483007591FD9004ABE014F0701174C8F09005F1
:101493006D1214A29005967402F0A3F00214A7E44F
:1014A30012174A22D083D082229004937404F090BE
:1014B300049674FFF0A374082274F7120D6B900462
:1014C3008BE0F9706C900406E0F47065900402E020
:1014D300900494F0900403E0900495F0900404E0E9
:1014E300900496F0797E12226F75080375090078CF
:1014F30008120EC87C947D047A007BFC12220774C8
:1015030002120D2A90049C1217DC121F5D75080F3E
:101513007808120EC87C9C7D047A067BFC12220795
:101523007402120D2A121D0E1217A975080802174C
:1015330010900402E0F8900494E06860030216B18E
:10154300900403E0F8900495E06860030216B190FC
:10155300048CE06403701512179F1217BF90048B5D
:10156300F090043DE4F090048C7404F0900496E051
:10157300FA900404E0F508EA6508600974FF650859
:10158300600302170AA3E06013146031146075143A
:10159300607C24FC700302167602169CA3E02430C0
:1015A300C0E074092508F58274043400F583D0E0A3
:1015B300F09005957401F0A3740302169B90058BBC
:1015C30012173E120EC8121726120D2A90048DE030
:1015D300F8701F1217509005A4E41217B8F078089A
:1015E300120EC8121726120D2A90048D7401F002F0
:1015F300170A740468600302170A12175090048DC7
:10160300740580EA7B0079051213CC02169C9004C2
:101613008DE0F8740668600A7405686005740468F0
:10162300701979021226A979011226A990059674D8
:1016330014F090048D7404F002172390058B740149
:10164300F0A374051217CE60031217DC90048DE02B
:10165300604D9005951214A279021226A99005A453
:1016630012173E120EC8121726120D2A90048DE48B
:10167300F0802CA3E0900474F075080575090078D8
:1016830008120EC87C007D007A6A7B0412172E12A2
:101693000D2A90059F1217B6F090048DE0706890A4
:1016A3000405E064036060121734040215F190042A
:1016B30005E0F87401686005740268700C12173451
:1016C3007402F090048C02160390048CE0FA740305
:1016D30068700E74056A700990049CE06960078065
:1016E3002674036A70219005867401F0A37493F045
:1016F300A3F09005A474011214A390048C7403F056
:101703007A817B041228EF7508087509007808129E
:101713000EC87C007D007A017B0412172E120D2A5D
:101723000213C77C007D007A6F7B041228B1740218
:101733002290058B12174990048D221217497508C0
:1017430005F509780822E4F0A3F0A3F022900595AB
:101753007401F0A374C8F0A3F079011226A922C082
:1017630082C08390043DE004F0C3940F4024121719
:101773009FF090049CE090048BF0A37402F090041B
:101783009CE0F91221121217A97A837B041228EF25
:1017930080071217BFF91221120214A790058612AF
:1017A300174990043D2290058B1217B6F090048DD3
:1017B300E4F0227401F0A37405F0A322E0F8749C12
:1017C30028F58274043400F583E022F0A3F090043A
:1017D3008BE0F890049CE06822E090048BF0F9120F
:1017E300211222C082C08375E1E39061A3E0D2E2BB
:1017F300F00214A7C082C0839061A3E0C2E2F07537
:10180300E1EF75E1EC75E1EC75E9FB0214A7C08229
:10181300C083900540E02401F0A3E03400F07A0196
:101823007B001218E053BEFC43BE0243870100E570
:101833009DA2E650FA007A407B00121C7F9005407F
:10184300E0A2E0401490048DE0700E900491E064F7
:101853000470061218D77401F01217E6900540C3FE
:10186300E09457A3E09402400F900540E4F0A3F006
:10187300120FAFE9900498F0E590F8E5905404F95D
:10188300900491E0FAE8A2E3401C74046A700E121B
:1018930018D7E4F0900491F0121D0E8032EA70061E
:1018A3001218D7E48028E9701B74026A7902600F6A
:1018B30012268979011226A9121D0E7402800F12B5
:1018C3002689800B74046A6006121D9E7404F0D08E
:1018D30083D0822279011226899005962274F1120F
:1018E3000D6BE595F50CE596F508E4F50DF50EF5AC
:1018F3000FF509F50AF50B74087808120B9F780C9D
:101903007908120BD1859708E4F509741078081249
:101913000B9F780C7908120BD18A088B09E4F50A1E
:10192300740F7808120B9F780C7908120BBE850C84
:1019330008850D09850E0A850F0B74107808120BA4
:1019430086E508F597850D09E509F596E50CF59506
:101953007F08020DD1C082C08390053E743EF0A380
:101963007404F012196C0218D274F7120D6B7CAE6A
:101973007D04121C41700A7AB37B041228EF021C07
:10198300177CB87D04121C4160ED7CC37D04121CDE
:1019930041701D90048BE0F5087509007808120E5C
:1019A300C87AD27B041228EF7402120D2A021C1784
:1019B3007CDF7D04121C4170121217E67B037AFF51
:1019C30079041213CC1217F7021C177CEA7D041258
:1019D3001C417018900490E4F09004AD04F090045E
:1019E3008BE4F0F91221121217E6808B75080E753D
:1019F30009007808120EC87CFA7D04121C37120DF8
:101A03002A8B09EA4509703290044EE0640D6003A5
:101A1300021C17A3E0640A6003021C1775F00A9006
:101A2300044CE0A475830475824DF8E02824F090FB
:101A330004ADF0900490740180A37C097D05121C11
:101A4300417016900490E4F09004AD04F090049C6F
:101A5300121DB51217F702197A75080C750900786B
:101A630008120EC87C197D05121C37120D2A8B092A
:101A7300EA45096003021B1490044EE0640D600301
:101A8300021C17A3E0640A6003021C1775824A75DF
:101A93008304E024BFC3941A5004E024F9F0E02443
:101AA3009FC3941A5004E024D9F0A3E582B44E04F2
:101AB300E583640470DC90044AE0C454F075830445
:101AC30075824BF8E02824D0900494F0121C6C909B
:101AD3000495F0797E12226F750802750900780863
:101AE300120EC87C947D047A007BFC1222077402D8
:101AF300120D2A121F5D75080F7808120EC87C9C00
:101B03007D047A067BFC1222077402120D2A021945
:101B13007A75080E7509007808120EC87C267D05B3
:101B2300121C37120D2A8B09EA450970569004528C
:101B3300E0705090044EE0640D6003021C17A3E0B4
:101B4300640A6003021C1775824C758304E024BF8A
:101B5300C3941A5004E024F9F0E0249FC3941A506C
:101B630004E024D9F0A3E582B44E04E58364047051
:101B7300DC121C6C900498121C4EF0900492E4F05A
:101B830002197A7508087509007808120EC87C35A1
:101B93007D05121C37120D2A8B09EA4509707590D1
:101BA3000452E0706F7401121DA96003121DB590F9
:101BB3000447E0F8740D687014A3E0640A700E9093
:101BC3000446E024D09004AC121C4E80409004489C
:101BD300E0F9740D697013A3E0640A700D75F00ADF
:101BE300900446E0A42824F080DB900449E0640DCF
:101BF300701CA3E0640A701675F00AE8A4F875F087
:101C030064900446E0A4282924309004ACF09004A6
:101C1300927401F07508147509007808120EC87CD7
:101C2300007D007A3E7B041228B17402120D2A7FD4
:101C330002020DD17A3E7B041229817402227A3E7C
:101C43007B0412293B8B09EA450922F09004937423
:101C530004F090049674FFF0A37401F01217E69059
:101C6300058C740AF0A374022290044CE0C454F06F
:101C730075830475824DF8E02824D022EA4B601660
:101C830000000000000000000000EA24FF1AEB340B
:101C9300FFFBEA4B70EA22C008A2E950FCC2E9EA62
:101CA300F5088508C17B00D00822C082C08375EB8C
:101CB3000675ED0075EE0075EF00900542120C02FB
:101CC3007904121DBFE9600B43EB0843EC04D2BC5B
:101CD30043EB100218D253F1FEE5F1A2E0500543A5
:101CE300F430800343F30CE59EA2E0E433240AF5C9
:101CF300C575C23B43868043C482D2E9D2AA4386D8
:101D0300402253F3FEC28043FD0122EEC0E07EFA7F
:101D13006380017AC27B01121C7F1EEE70F2C280C7
:101D2300D0E0FE2274F8120D6B900453E004F0909F
:101D33000454E004F0C394044008E064057057E4DD
:101D4300805390058CE4F07E966380017A5E7B017C
:101D5300121C7F1EEE70F2C280900453E0C394966F
:101D6300403490059AE4F0A3F0A3F090058B04F0BF
:101D7300A37405F0A3121DA96003121DB590059568
:101D8300E4F0A3F0A3F0121D9E90048DE4F0900400
:101D930053F0900454F07F01020DD179011226A96A
:101DA30079021226A922F090048BE0F890049CE0BB
:101DB3006822E090048BF0F91221122274F1120DC3
:101DC3006BE9FE8A088B098C0A8D0B7A00E59E135A
:101DD3001313541F5407C394064038E59E1313137B
:101DE300541F540724FBF8E434FFF9E8C333F8E93C
:101DF30033880CF50D3395E0F50EF50F780C790863
:101E0300120287500EE5084509450A450B600E7915
:101E1300008067E5084509450A450B701C7A079061
:101E230005467808120BE474046E703CEAC433541C
:101E3300E042EBE508F5ED803F74057808120B9F4F
:101E4300E59E131313541F54077808120B8690054D
:101E53004A780812029750CF74017808120B860A49
:101E6300EAC3940840E880A774036E70A2EAC433FF
:101E730054E042CBE508F5CDA908021953790012C5
:101E83001EAA121CAD121CD9121FFD75B90375A928
:101E93000E12265C1223A7121D0512265C120F08D0
:101EA300C2C7D2ADD2AF22E5C65480F853BEFBE51C
:101EB3009DA2E650FA00740169700474498005E933
:101EC3007005742848F5C6E5C6F8E59E6870FB43BF
:101ED300BE042274F7120D6B74FD120D1490618908
:101EE300E04430F0E0C2E4F0906180E0C2E0F090C2
:101EF3006194747FF09061FA7409F09061B2741583
:101F0300F09061AEE4F0121FCA906199E0A2E05034
:101F1300F8780079007C10121FD770FB121FED12A6
:101F2300231E900455C082851082851183AC82AD37
:101F330083758304D0827403120C27750803F50993
:101F43007808120EC87402120D5F1220EA120D2ACD
:101F53001221347900740302210574F6120D6B907B
:101F63000494E0F5BCA3E0F5BC7509007E9C7F04F6
:101F7300801675829C758304F508E068600AA315D2
:101F830008E50870F5E4600D1220FAE9540FF860D3
:101F9300F7E50970DDE88E828F83F00509A3AE8231
:101FA300AF83E509C3940F40DF121FCA906199E024
:101FB300A2E050F8780079007C10121FD770FB1252
:101FC3001FED7F03020DD1906189E054F34408F0C3
:101FD30075E1E322E8C333F8E933F99061A7E0A29E
:101FE300E0E433FAE84AF81CEC22748048F5BCE9D3
:101FF300F5BC906189E054F3F02274F7120D6B7411
:10200300DC120D147404F5D575D46290054EC082AC
:102013007403120D5FAC82AD83758305D0827403A4
:10202300120C27750803F5097808120EC8740212FA
:102033000D5F1220EA120D2A7808120EC8740512D9
:102043000D5FAC82AD837402120D5F1220E0120D9E
:102053002AE9701C851082E0900494F07401120D3B
:102063005FE0900495F07402120D5FE0900496F027
:1020730075080F7808120EC87CFF7D007417120DC7
:102083005FAA82AB831228B17402120D2A78081258
:102093000EC87408120D5FAC82AD837A181220F05B
:1020A300120D2A7808120EC87408120D5FAC82ADA7
:1020B300837417120D5F1220E0120D2AE9701A784B
:1020C30008120EC87408120D5FAC82AD837A9C7B34
:1020D3000412286B7402120D2A74248025AA82AB81
:1020E30083122284740222AC82AD837A007B00794E
:1020F3007E122191740222E5B454F34404F5B4A989
:10210300BD22120D2A7F02020DD17F04020DD1746C
:10211300F8120D6BE9FE1217F775F005EEA4240B08
:1021230090618FF01217E67F01020DD1D083D08228
:1021330022C082C0839061A3E0D2E6F0439A01807B
:10214300EBC082C083E5A8F8C2AF900458EAF0A3BD
:10215300EBF0E8A2E792AF80D3C082C08390619393
:10216300E0542270F880C5C0E074F2120E11E5A8A5
:10217300FEC2AF759B00900458E0F8A3E0F5838896
:1021830082120D69EEA2E792AF7F01020E7074F521
:10219300120D6BE9FE740B120D5FE0F50AA3E0F577
:1021A3000B740F5EF508750900740B7808120D01A6
:1021B300EA2400F8EB3480F9E82400E93509F9E56D
:1021C300C7FBC2AFEEC4540FFAE5C754F84AF5C7CC
:1021D300E50A450B602788828983E08C828D831210
:1021E30023138C828D83A3AC82AD83E50A24FFF590
:1021F3000AE50B34FFF50BE50A450B70D98BC7D203
:10220300AF02210D74F7120D6B7409120D5FE0F527
:1022130008A3E0F509ED900462F0ECA3F0A3746267
:10222300F0A37473F0A3E0541FF0E508333354FCB8
:10223300A3F074067808120CF2E508900466F09097
:1022430004687412F0A37442F075D1FE75D601EAE6
:10225300906271F0EBA3F043C708906270E0D2E1A3
:10226300F0E0A2E740FB53C7F7022108C082C08316
:10227300E9C333906272F0906270E0D2E0F0022121
:102283002F74F6120D6BECF8EDF9740A120D5FE082
:10229300FCA3E0FDEC4D6038EC24FF1CED34FFFDA6
:1022A300EAFEEBFF8E828F83A3AA82AB8388088921
:1022B30009850882850983A3A882A9838E828F83D7
:1022C300E0FE850882850983E06E60C8790080029C
:1022D3007901021FC574F8120D6BECF8EDF974085F
:1022E300120D5FE0FCA3E0FDEC4D60218882898341
:1022F300E08A828B831223138A828B83A3AA82AB05
:1023030083EC24FF1CED34FFFDEC4D70DF02212A2A
:10231300F088828983A3A882A9832274F7120D6BA4
:1023230074F8120D14851082851183AC82AD837508
:1023330083057582517408120C27750808F509780E
:1023430008120EC87C5A7D047AE87B07797F122035
:10235300F4120D2A7808120EC87402120D5FAC82B3
:10236300AD837A5A7B041220E4120D2AE960307897
:1023730008120EC87402120D5FAC82AD837A0C7B17
:10238300781220E4120D2AE970157808120EC87C21
:102393000C7D787A5A7B041222D87402120D2A74A7
:1023A3000802210553F3FD53FDFD538FFD53F7DF62
:1023B300438C0143AB02D2BD85898922C082C0838D
:1023C300900475E0600F14603714605C14700302AE
:1023D300246E022494A281400A1224A304F0D08321
:1023E300D0822290048DE0640370F3122645900599
:1023F3009A7401F0A3740AF0A3F090048DE480DDD5
:102403001224AE40D9A281401090059A12258890DB
:1024130004761224A7740280C4900475E4F0900536
:102423008B04F0A3740580CFA2815018E4F09005CB
:102433008DE0700812264590048DE4F0900476E454
:10244300F0A3809990047612258F900476C3E094CC
:1024530088A3E09413408790048BE4F0F9122112CF
:102463001213F21224A374030223E01224AE5003C6
:102473000223E1A28150C590058DE0700E1226451E
:1024830090049C12265290048DE4F01224A302239C
:10249300E012271A12271E7A647B00121C7F80F138
:1024A300900476E4F0A3F09004752290047612254C
:1024B30093900476C3E09414A3E094002274F7127B
:1024C3000D6B90048DE090046D700A12258F9004BB
:1024D3006CE0048003122598F090046DE064C870EA
:1024E30002A3E0700D90046DE4F0A3F090046CE09F
:1024F30004F090046CE064786003022580E4F090BB
:10250300046BE004F0643C7008E4F090046AE004B7
:10251300F090046AE075F03CA4F8A3E0FAE82AF826
:10252300E5F03400F9900474E0FAC3E89AE9940002
:10253300A2D265D033404690059A7401F0A374C8C3
:10254300F0A3F09005967496F090058B1225889071
:10255300048DE064017004740680027404F0900436
:102563007412263B120EC87C007D007A6A7B04122B
:1025730028B17402120D2A90059F1225887F02024A
:102583000DD19005A4E4F0A3F0A3F0221225932229
:10259300122598F022E02401F0A3E034002274F71E
:1025A300120D6B90048DE0F86005740468701F12BF
:1025B3002585750805F5097808120EC87C007D008D
:1025C3007A6F7B041228B17402120D2A806790047B
:1025D3007212258F900472E064C87002A3E07055F4
:1025E300900472E4F0A3F0900471E004F0C3940546
:1025F300404374016860057402687039122645907F
:10260300048BE0F890049CE0686003122652900566
:102613009512258879021226A990048D12263B1261
:102623000EC87C007D007A6F7B041228B1740212FD
:102633000D2A122585022580E4F0750805F5097831
:10264300082290058B7401F0A37405F0A3F022E037
:1026530090048BF0F91221122253F4FDC29143FE30
:102663000253F4EFC29443FE10D291D29453F4F781
:1026730053FEF753F6F753F7BF53F4FB53FEFB53E5
:10268300F6FB53F7BF227401697003C291227402EF
:10269300697003C294227403697003C2A022740494
:1026A300697002C292227401697003D2912274028A
:1026B300697003D294227403697003D2A022740454
:1026C300697002D29222C082C08390048DE0F870B8
:1026D30004D291803D740168600F740268600A74CB
:1026E300056860057406687005639010802474049F
:1026F30068701F900478E0A2E04009C291900596AB
:1027030074058007D2919005967496F0900478E052
:1027130004F0D083D08222639002226390102212AD
:102723001E8012137E7A597B051228EF12283580FA
:10273300FBC0E074F2120E11C2AF1227F4D2AF7FC6
:1027430001020E70C0E074F1120E11C2AFE5C1C0F8
:10275300E090053EE0F8A3E0F5838882D0E0F090B6
:10276300053EE02401F8A3E03400F990053EE8F0CB
:10277300A3E9F090053EE064517004A3E0640470A3
:10278300257508147509007808120EC87C007D00B1
:102793007A3E7B041228B17402120D2A90053E740E
:1027A3003EF0A37404F090057D7414F0D2AF7F0261
:1027B300020E70C2C732C0E0C0D0C082C083E589B8
:1027C3006003758900C2C590058BE4F0A3F0A3F004
:1027D30090059AF0A3F0A3F0900453F090048D7445
:1027E30003F0E59DA2E650FAD083D082D0D0D0E0AA
:1027F30032C082C0837868790588828983A3AA82DC
:10280300AB83E0601714F0701388828983A3A3E07D
:102813008A828B83F0888289837401F0E82405F827
:10282300E93400F9E8B4A903E9640570CCD083D096
:10283300822274F8120D6B7E687F058E828F83E08F
:102843006010E4F0A3A3A3E0F8A3E0F58388821269
:102853000D69EE2405FEEF3400FFEEB4A903EF6427
:102863000570D87F01020DD174F7120D6B74091234
:102873000D5FE0FEA3E0FFEAF8EBF980188C828D90
:1028830083E088828983F0A3A882A9838C828D83C5
:10289300A3AC82AD838E088F09E50824FF1EE509EA
:1028A30034FFFFE508450970D47F02020DD174F8A7
:1028B300120D6B7408120D5FE0F8A3E0F98A828BA6
:1028C300838003ECF0A3E8FEE9FFEE24FF18EF3466
:1028D300FFF9EE4F70ED7F01020DD174F7120D6B0E
:1028E300E9FA7B00121C9A7F02020DD174F7120DD4
:1028F3006B74FE120D14740B120D5FA882A98385ED
:102903001082851183E8F0A3E9F085108285118395
:102913008582088583097808120EC8E4F508F5094D
:102923007808120EC87CDE7D28122F127404120D53
:102933002A7402120D2A80AF74F8120D6B80098C71
:10294300828D83A3AC82AD838A828B83E0F88C82F1
:102953008D83E068701AEAF8EBF988828983A3AA69
:1029630082AB8388828983E070D57A007B008009FB
:10297300E0FAE8C39AFA95E0FB7F01020DD174F700
:10298300120D6B7409120D5FE0FEA3E08007EE24C5
:10299300FF1EEF34FFFFEE4F604EECF8EDF9888237
:1029A3008983A3AC82AD838A828B83E0F508888216
:1029B3008983E065087016EAF8EBF988828983A3B6
:1029C300AA82AB8388828983E070C3801B8A828B4F
:1029D30083E0F8EC24FFF582ED34FFF583E0FAE8B9
:1029E300C39AFA95E0FB80047A007B007F02020D14
:1029F300D174F1120D6B74FD120D147402120D5F7C
:102A0300E9F08A088B098C0A8D0B7414120D5FE0B0
:102A1300FEA3E0FF851082851183E4F0A3F08E828C
:102A23008F83A3AA82AB839005CD780C120BE47835
:102A330008790C12041970188E828F837469122E10
:102A4300D3746EF0A37466F0A30A0AAB83022E6EEE
:102A53007808790812041960118E828F83746E12BC
:102A63002ED37461F0A3746E80DD9005D1780C12BF
:102A73000BE47808790C1204455003022B1E9004D2
:102A83007D780C120BE47808790C120419600302A8
:102A93002B727416120D5FE07003022BB485108243
:102AA300851183C082C0837412120D5F123911D055
:102AB30083D082122EAC502C851082851183C3E003
:102AC30094FCA3E094FFA2D265D0334017740212A2
:102AD3000D5FE41239E5F97412120D5FC3E098F04B
:102AE300A3E099F07412120D5F122EC97417120D20
:102AF3005FE07003022BB17416120D5FE4022BB377
:102B03009005D5780C120BE47808790C12089C8593
:102B13001082851183E0240A123A229005D9780C99
:102B2300120BE47808790C12044540D49005DD7843
:102B33000C120BE47808790C1204454003022A9521
:102B43009005DD780C120BE47808790C12089C12BE
:102B53003A1980D89005D5780C120BE47808790CD3
:102B63001204E0851082851183E024F6122ECC90A6
:102B730005E1780C120BE47808790C12049440D424
:102B83009005D1780C120BE47808790C1204944068
:102B930003022A959005DD780C120BE47808790C72
:102BA3001204E0851082851183122EC980D274012C
:102BB300F07402120D5FE060077A007B00022CC004
:102BC300122EB8507D8E828F837430F0EAFEEBFFB5
:102BD3007412120D5FE0FCA3E0FDEC4D7008741756
:102BE300120D5FE0600B8E828F83742EF0A30EAF05
:102BF300837A007B0080118E828F837430122EF4CF
:102C03007412120D5F122EC9EA24FF1AEB34FFFB74
:102C1300851082851183122EA0500B7412120D5F42
:102C23001239154970D185108285118374FFC39CB5
:102C3300F874FF9DF9122EAC5003022D8E7A010217
:102C43002BBE851082851183123911C3E498FAE4EF
:102C530099FB806985080C85090D850A0E850B0F84
:102C6300780C12032EAC0CE50D3395E0F50EF50F41
:102C7300780C1202B67808790C1206609005DD789C
:102C83000C120BE47808790C1204E0EC122EEEEA35
:102C9300F8EBF9E824010AE93400FBE849701E74F3
:102CA30012120D5F1239154970087417120D5FE087
:102CB300600B8E828F83742EF0A30EAF8374121277
:102CC3000D5F122EA0508D9005E5780C120BE47861
:102CD30008790C1204454003022D8E7C01EE24FF7B
:102CE300F8EF34FFF97414120D5FE0F508A3E0F573
:102CF3000988828983E0642E6010E02CF0643A70C6
:102D0300077430F07C0180027C00E8FAE9FBEA24D6
:102D1300FF18EB34FFF9C3E5089AE5099B40D2ECB1
:102D2300A2E050677402120D5FE06036EEF8EF80A8
:102D33000A122E8BE824FF18E934FFF9C3E508983B
:102D4300E509995018122E78E0642E70E4E824FE09
:102D5300F582E934FFF583122E85F980D7123A19EB
:102D6300801E8E828F83A3AE82AF83EEF8EF800640
:102D7300122E78122E85F9C3E50898E5099940F0DB
:102D83007414120D5F1239307431F07416120D5F22
:102D9300E07005801A1EAF83EE24FFF582EF34FF47
:102DA300F583E0643060EEE0642E70031EAF83743D
:102DB30002120D5FE07003022E6A122EF0A3A983A4
:102DC300122EB88E828F835014742DF00EE9FF8576
:102DD3001082851183123959122EE18006742BF06B
:102DE3000EE9FF7C007D00EE240AFEEF3400FFECC9
:102DF30024010CED3400FD122E92120C81EA122EE6
:102E0300EE122E92120C81122EFB4970E2C3EC9447
:102E130002ED1238C240D8ECFAEDFBC3E49CF8E4AF
:102E23009DF9EE28F582EF39F583E0C0E0C3E49A1B
:102E3300F8E49BF9EE28F8EF39F9E82CF8E93DF9C5
:102E4300E824F5F582E934FFF583D0E0F0EC24FFC4
:102E53001CED34FFFDC3EC9401ED1238C250BCEEFF
:102E630024F6FEEF34FFFFEEFAEFFB7403120D2A94
:102E73007F08020DD1E824FFFAE934FFFB8A828B35
:102E83008322122E8B18EB22E088828983F022851D
:102E930010828511831239667A0A7B0022C3E09A75
:102EA300A3E09BA2D265D03322C3E098A3E099A20A
:102EB300D265D03322851082851183C3A3E09400A9
:102EC300A2D265D03322E024FFF0A3E034FFF02246
:102ED300F0EAFEEBFF8E828F8322A3E03400F985B4
:102EE3001082851183E8F0A3E9F02224308E828FCB
:102EF30083F0A3AE82AF8322851082851183122FC4
:102F03000522E8F0A3E9F0851082851183E022749D
:102F1300F1120D6B74B0120D14851082851183129A
:102F230039CB7418120D5FECF0A3EDF0740F120D92
:102F33005FE4F0A38022745F120D5F123901740401
:102F4300120D5FE0F97418120D5F123930120D691A
:102F5300740F120D5F1238CAF0123944FA123A0490
:102F6300120D5FEAF074256A6010E070C9740F12E5
:102F73000D5F1239017450022E70123944642570AA
:102F830019851082851183E0240108122EDD745FF8
:102F9300120D5F123901792580AB740E120D5FE4B7
:102FA300F0740D120D5FE4F0740C120D5FE4F07415
:102FB30005120D5FE4F0741E120D5FA882A98374DD
:102FC30002120D5F80157405120D5FE07007740522
:102FD300120D5FEAF0851082851183122F011238DA
:102FE300F812398BFA24E060DD24FD601724F860C1
:102FF300DD24FE600624FD600F8011740C120D5F4A
:10300300E00480D0740D80F5740E80F112398B6466
:103013002A705B7461120D5F123996FB8A828B836F
:10302300E0FCA3E0FD740A120D5FECF0A3EDF0EAFF
:1030330024020A0AEB3400FB7461120D5F1239C3D8
:10304300740A120D5F122EBE501F740A120D5F1206
:103053003901C3E49AFAE49BFB740A120D5F123937
:10306300CB740C120D5FE004F0122EE2804A740A56
:10307300120D5FE4F0A3802D740A120D5F1239154F
:1030830075F00AA4F8AAF075F00AE9A42AF9E5088C
:1030930028F8E439F9E824D0F8E934FFF9740A127E
:1030A3000D5F123A291239E5F5838882E0F5087439
:1030B300D02508C3940A40C0740C120D5FE060076A
:1030C300740E120D5FE4F0123944642E6003023172
:1030D3005D851082851183E0240108A3E03400F9A3
:1030E300122EFB123935E0642A702C7461120D5FC5
:1030F30012394AF8A3E0F988828983E0FEA3E0FF4E
:10310300E824020808E93400F97461120D5F1239EA
:103113007E123A29F080477E007F00851082851158
:103123008312395374D02508C3940A5031EE75F0D5
:103133000AA4FEA8F075F00AEFA428FFE5082EF80C
:10314300E43FF9E824D0FEE934FFFF8510828511BE
:1031530083E02401F8122EDD80C17EFF7FFF7A0019
:103163008510828511831238F3851082851183E0DF
:10317300FBA3E0F5838B82E024B4600824E46005BC
:1031830024FC70040A122EE2123944FB123A041290
:103193000D5FEBF0700302376824BB700302362E19
:1031A30024FE700302361024EF700302335A24F511
:1031B300700302325F1470030233FF14700302368C
:1031C3002E14700302362C14700302361024FE7082
:1031D300030233FF24FB602414700302334A147088
:1031E3000302335A24FD700302329824FE70030253
:1031F300335A24FD700302335A0237747461120D7B
:103203005F1239BD120D5F122EE8EAA2E0740F506F
:1032130033120D5FE0FCA3E0FD3395E0FE7406126C
:103223000D5F12399EECF0A3EDF0A3EEF0A3F07462
:1032330061120D5F1239A5120D5F12397EE8F0A3FA
:10324300E9022F5B120D5F1239117406120D5F1222
:103253003996F5838A82E8F0A3E980D27461120D6E
:103263005F12399EE0C0E0741E120D5FD0E0F0746F
:1032730061120D5F1239A5120D5F12397E122EE80D
:10328300741F120D5FA882A9837412120D5FE8F0F8
:10329300A3E902378B7461120D5F1239BD120D5F02
:1032A300122EE87406120D5F1239BD120D5FE02471
:1032B30002FAA3E03400FB7461120D5F1239C37488
:1032C30002120D5F122EE8E849700C7402120D5FB2
:1032D30074BAF0A37405F01238C050047E107F272F
:1032E3007408120D5FE4F0A380087408120D5F12D6
:1032F30038CAF07402120D5F12391188828983A3D0
:10330300AA82AB837402120D5F1239CB8882898340
:10331300E0600A7408120D5F12391A40CD7402126C
:103323000D5F1238E17412120D5F122EE874081249
:103333000D5F123959F97412120D5FE028F8A3E0FA
:1033430039F9740202328E740D120D5FE06008EEDB
:103353004F70047E017F007461120D5F1239BD123C
:103363000D5F123A11120D5FE0647070387406122B
:103373000D5F1239B3120D5F1239EC120D5FE024A9
:1033830002123975120D5F12397E122EE89005E98B
:10339300120C02741A120D5F120C0E7405120D5FDB
:1033A300E4F002348FEAA2E07406501B120D5F12A0
:1033B3003930120C027414120D5F120C0E740612C3
:1033C3000D5FE024048012120D5F1239B3120D5FFA
:1033D3001239EC120D5FE02402123975120D5F12DF
:1033E300397E123A11120D5FE0646F70059005ED9E
:1033F300809EE0647570969005F180947461120D5F
:103403005F1239BD120D5F122EE8EAA2E074065076
:1034130016120D5F1239307808120BE47406120D80
:103423005FE02404F8801B120D5F123953A3E0F50B
:10343300093395E0F50AF50B7406120D5FE02402DB
:103443000808123976120D5F1239F9120D5F7808E8
:10345300120BF390047D7808120261402174051267
:103463000D5F742DF07414120D5F7808120BE4785D
:1034730008120B757414120D5F7808120BF3900584
:10348300F1120C02741A120D5F120C0E744F120D0E
:103493005FA882A9837402120D5F122EE8741212C0
:1034A3000D5F1239FC120D5F7808120BE4E5084535
:1034B30009450A450B60097411120D5F74018006FA
:1034C3007411120D5FE4F0EE4F7008E0A2E04003C8
:1034D3000235837402120D5F12392A120D5F1239FD
:1034E300FC120D5F780C120BE4741A120D5F78084E
:1034F300120BE4780C7908120B0274A92508F582E3
:1035030074053509F583E0C0E07402120D5F1239CA
:1035130030D0E0F07414120D5F780C120BE4741ABF
:10352300120D5F7808120BE4780C7908120B027401
:1035330014120D5F780C120BF37414120D5F7808DC
:10354300120BE4E5084509450A450B70861238C09D
:10355300502E740E120D5FE060267405120D5FE0AD
:103563006004D2F08002C2F0740A120D5F1238D3E5
:10357300800E7402120D5F1239DD120D5F12393D98
:103583007402120D5F1238E1744F120D5FC082C0D6
:10359300837402120D5F123901D083D082E582C396
:1035A3009AFAE5839BFBC3EA9EEB12392340C3746B
:1035B3000D120D5FE0700302378C7411120D5FE082
:1035C300A2E0400302378C7404120D5FE06478605C
:1035D30005E06458701E122E8BE824FF18E934FFAF
:1035E300F97402120D5F1239DD120D5F1239307456
:1035F3003002378BE0646F600302378C7402120D64
:103603005F1239916430700302378C80D4740812CE
:103613000D5F7401F0A3E4F07404120D5FE024FE67
:10362300F0EE4F700F7E018012E4F07408120D5F0C
:10363300E4F0A3F01238C050047E067F00746112D8
:103643000D5F1239BD120D5F122EE87406120D5F65
:10365300123930780C120BE47406120D5FE0240467
:10366300123975120D5F1239F9120D5F780C120BB6
:10367300F390047D7808120BE4780C790812049413
:1036830050227405120D5F742DF07414120D5F78BF
:1036930008120BE4E50BB2E7F50B7414120D5F7817
:1036A30008120BF3740A120D5F123911741E120DF6
:1036B3005FE58228F8E58339F97402120D5F122E53
:1036C300E8740D120D5FE0F5087808120ECC74094A
:1036D300120D5FE0F5087808120ECC7404120D5F2A
:1036E300120EDB8E088F097808120EC8740A120DA9
:1036F3005FE0F9741A120D5F120C021229F47406BA
:10370300120D2A7412120D5F1239CB740E120D5F53
:10371300E060767405120D5FE06004D2F08002C2AF
:10372300F0740A120D5F1238D37412120D5FC08247
:10373300C0837402120D5F123911D083D082E0C3AB
:1037430098F8A3E099F9C3E89EE9123923503A7433
:1037530002120D5F12392A120D5F1239DD120D5F4D
:1037630012393D80C48510828511831238EA122EE6
:10377300E17402120D5F74C9F0A37405F0741212A0
:103783000D5F74CCF0A37405F07412120D5FC08248
:10379300C0837402120D5F123911D083D082E0C34B
:1037A30098FEA3E099FF740A120D5F12391A500AAA
:1037B3007408120D5FE4F0A380307405120D5FE00E
:1037C3006004D2F08002C2F0740A120D5FE0C39E5F
:1037D300F8A3E09FF9A2F0E433FAE89AF8E9940039
:1037E300F97408120D5FE8F0A3E9F0740C120D5F91
:1037F300E0702B8019745F120D5F123907120D5F91
:10380300123930120D69740F120D5F123A1F7408CA
:10381300120D5F1239D1120D5F122EBE50D77405EF
:10382300120D5FE06050745F120D5F123901740571
:10383300120D5FE0F97418120D5F123930120D6921
:10384300802C745F120D5F1239017402120D5F1226
:10385300394AF97418120D5F123930120D69740266
:10386300120D5F1238F37402120D5F122EE8740FFB
:10387300120D5F123A1FEE24FF1EEF34FFFFC31237
:1038830038C250BE740C120D5FE07003022F5C74DB
:1038930008120D5F1239D1120D5F122EBE500302B2
:1038A3002F5C745F120D5F123907120D5F123930EE
:1038B300120D69740F120D5F123A1F80D2C3EF9479
:1038C30000A2D265D03322E02401F0A3E034002229
:1038D300A2F0E433F8E098FEA3E09400FF2212384C
:1038E300E5221238EAF922E024FFF8A3E034FF22AC
:1038F300E01238F8222401F8A3E03400F922E0FAB8
:10390300A3E0FB22E0FAA3E0FB792074182212392A
:103913006622123966E822C3E09EA3E0123923220D
:103923009FA2D265D033221238E5740222123934B1
:1039330022E0F8A3E0F5838882221239347430F050
:103943002285108285118312394E2212396CE022AE
:1039530012394EF50822123966C3E498F8E4992225
:1039630012396CE0F8A3E0F922E0F8A3E0F58388CC
:103973008222F8A3E03400F974612212398222E032
:10398300FAA3E0F5838A8222851082851183123996
:1039930082E022123982E0FAA3E02212394E123970
:1039A300352212394E2402F8A3E03400F97461225F
:1039B300123963E8FAE9FB7414221239637406229C
:1039C300E0FCA3E0F5838C82EAF0A3EBF022E02491
:1039D300FFF0A3E034FFF0740822E8F0A3E9F074E9
:1039E3000222122F09F8A3E022EAF0A3EBF0A3E4EA
:1039F300F0A3F0740622123982E8F0A3E9F07414FC
:103A030022851082851183E0240108123A37E8F0F9
:103A1300A3E9F0740422851082851183E02401F068
:103A2300A3E03400F022122F052401F8123A37E8FC
:103A3300F0A3E922A3E03400F985108285118322E3
:04000005000000D324
:00000001FF
